{
  "_format": "hh-sol-artifact-1",
  "contractName": "NFTItem",
  "sourceName": "contracts/NFTItem.sol",
  "abi": [
    {
      "inputs": [],
      "stateMutability": "nonpayable",
      "type": "constructor"
    },
    {
      "anonymous": false,
      "inputs": [
        {
          "indexed": true,
          "internalType": "address",
          "name": "owner",
          "type": "address"
        },
        {
          "indexed": true,
          "internalType": "address",
          "name": "approved",
          "type": "address"
        },
        {
          "indexed": true,
          "internalType": "uint256",
          "name": "tokenId",
          "type": "uint256"
        }
      ],
      "name": "Approval",
      "type": "event"
    },
    {
      "anonymous": false,
      "inputs": [
        {
          "indexed": true,
          "internalType": "address",
          "name": "owner",
          "type": "address"
        },
        {
          "indexed": true,
          "internalType": "address",
          "name": "operator",
          "type": "address"
        },
        {
          "indexed": false,
          "internalType": "bool",
          "name": "approved",
          "type": "bool"
        }
      ],
      "name": "ApprovalForAll",
      "type": "event"
    },
    {
      "anonymous": false,
      "inputs": [
        {
          "indexed": false,
          "internalType": "uint256",
          "name": "_fromTokenId",
          "type": "uint256"
        },
        {
          "indexed": false,
          "internalType": "uint256",
          "name": "_toTokenId",
          "type": "uint256"
        }
      ],
      "name": "BatchMetadataUpdate",
      "type": "event"
    },
    {
      "anonymous": false,
      "inputs": [
        {
          "indexed": false,
          "internalType": "uint256",
          "name": "_tokenId",
          "type": "uint256"
        }
      ],
      "name": "MetadataUpdate",
      "type": "event"
    },
    {
      "anonymous": false,
      "inputs": [
        {
          "indexed": true,
          "internalType": "address",
          "name": "to",
          "type": "address"
        },
        {
          "indexed": false,
          "internalType": "uint256",
          "name": "tokenId",
          "type": "uint256"
        },
        {
          "indexed": false,
          "internalType": "string",
          "name": "tokenURI",
          "type": "string"
        }
      ],
      "name": "Mint",
      "type": "event"
    },
    {
      "anonymous": false,
      "inputs": [
        {
          "indexed": true,
          "internalType": "address",
          "name": "from",
          "type": "address"
        },
        {
          "indexed": true,
          "internalType": "address",
          "name": "to",
          "type": "address"
        },
        {
          "indexed": true,
          "internalType": "uint256",
          "name": "tokenId",
          "type": "uint256"
        }
      ],
      "name": "Transfer",
      "type": "event"
    },
    {
      "inputs": [
        {
          "internalType": "address",
          "name": "to",
          "type": "address"
        },
        {
          "internalType": "uint256",
          "name": "tokenId",
          "type": "uint256"
        }
      ],
      "name": "approve",
      "outputs": [],
      "stateMutability": "nonpayable",
      "type": "function"
    },
    {
      "inputs": [
        {
          "internalType": "address",
          "name": "owner",
          "type": "address"
        }
      ],
      "name": "balanceOf",
      "outputs": [
        {
          "internalType": "uint256",
          "name": "",
          "type": "uint256"
        }
      ],
      "stateMutability": "view",
      "type": "function"
    },
    {
      "inputs": [
        {
          "internalType": "uint256",
          "name": "tokenId",
          "type": "uint256"
        }
      ],
      "name": "getApproved",
      "outputs": [
        {
          "internalType": "address",
          "name": "",
          "type": "address"
        }
      ],
      "stateMutability": "view",
      "type": "function"
    },
    {
      "inputs": [
        {
          "internalType": "address",
          "name": "owner",
          "type": "address"
        },
        {
          "internalType": "address",
          "name": "operator",
          "type": "address"
        }
      ],
      "name": "isApprovedForAll",
      "outputs": [
        {
          "internalType": "bool",
          "name": "",
          "type": "bool"
        }
      ],
      "stateMutability": "view",
      "type": "function"
    },
    {
      "inputs": [
        {
          "internalType": "string",
          "name": "_tokenURI",
          "type": "string"
        }
      ],
      "name": "mintNFT",
      "outputs": [],
      "stateMutability": "nonpayable",
      "type": "function"
    },
    {
      "inputs": [],
      "name": "name",
      "outputs": [
        {
          "internalType": "string",
          "name": "",
          "type": "string"
        }
      ],
      "stateMutability": "view",
      "type": "function"
    },
    {
      "inputs": [
        {
          "internalType": "uint256",
          "name": "tokenId",
          "type": "uint256"
        }
      ],
      "name": "ownerOf",
      "outputs": [
        {
          "internalType": "address",
          "name": "",
          "type": "address"
        }
      ],
      "stateMutability": "view",
      "type": "function"
    },
    {
      "inputs": [
        {
          "internalType": "address",
          "name": "from",
          "type": "address"
        },
        {
          "internalType": "address",
          "name": "to",
          "type": "address"
        },
        {
          "internalType": "uint256",
          "name": "tokenId",
          "type": "uint256"
        }
      ],
      "name": "safeTransferFrom",
      "outputs": [],
      "stateMutability": "nonpayable",
      "type": "function"
    },
    {
      "inputs": [
        {
          "internalType": "address",
          "name": "from",
          "type": "address"
        },
        {
          "internalType": "address",
          "name": "to",
          "type": "address"
        },
        {
          "internalType": "uint256",
          "name": "tokenId",
          "type": "uint256"
        },
        {
          "internalType": "bytes",
          "name": "data",
          "type": "bytes"
        }
      ],
      "name": "safeTransferFrom",
      "outputs": [],
      "stateMutability": "nonpayable",
      "type": "function"
    },
    {
      "inputs": [
        {
          "internalType": "address",
          "name": "operator",
          "type": "address"
        },
        {
          "internalType": "bool",
          "name": "approved",
          "type": "bool"
        }
      ],
      "name": "setApprovalForAll",
      "outputs": [],
      "stateMutability": "nonpayable",
      "type": "function"
    },
    {
      "inputs": [
        {
          "internalType": "bytes4",
          "name": "interfaceId",
          "type": "bytes4"
        }
      ],
      "name": "supportsInterface",
      "outputs": [
        {
          "internalType": "bool",
          "name": "",
          "type": "bool"
        }
      ],
      "stateMutability": "view",
      "type": "function"
    },
    {
      "inputs": [],
      "name": "symbol",
      "outputs": [
        {
          "internalType": "string",
          "name": "",
          "type": "string"
        }
      ],
      "stateMutability": "view",
      "type": "function"
    },
    {
      "inputs": [
        {
          "internalType": "uint256",
          "name": "tokenId",
          "type": "uint256"
        }
      ],
      "name": "tokenURI",
      "outputs": [
        {
          "internalType": "string",
          "name": "",
          "type": "string"
        }
      ],
      "stateMutability": "view",
      "type": "function"
    },
    {
      "inputs": [
        {
          "internalType": "address",
          "name": "from",
          "type": "address"
        },
        {
          "internalType": "address",
          "name": "to",
          "type": "address"
        },
        {
          "internalType": "uint256",
          "name": "tokenId",
          "type": "uint256"
        }
      ],
      "name": "transferFrom",
      "outputs": [],
      "stateMutability": "nonpayable",
      "type": "function"
    }
  ],
  "bytecode": "0x60806040523480156200001157600080fd5b506040518060400160405280600f81526020017f456d6f74696f6e616c204d7573696300000000000000000000000000000000008152506040518060400160405280600281526020017f454d00000000000000000000000000000000000000000000000000000000000081525081600090816200008f919062000324565b508060019081620000a1919062000324565b5050506200040b565b600081519050919050565b7f4e487b7100000000000000000000000000000000000000000000000000000000600052604160045260246000fd5b7f4e487b7100000000000000000000000000000000000000000000000000000000600052602260045260246000fd5b600060028204905060018216806200012c57607f821691505b602082108103620001425762000141620000e4565b5b50919050565b60008190508160005260206000209050919050565b60006020601f8301049050919050565b600082821b905092915050565b600060088302620001ac7fffffffffffffffffffffffffffffffffffffffffffffffffffffffffffffffff826200016d565b620001b886836200016d565b95508019841693508086168417925050509392505050565b6000819050919050565b6000819050919050565b600062000205620001ff620001f984620001d0565b620001da565b620001d0565b9050919050565b6000819050919050565b6200022183620001e4565b6200023962000230826200020c565b8484546200017a565b825550505050565b600090565b6200025062000241565b6200025d81848462000216565b505050565b5b8181101562000285576200027960008262000246565b60018101905062000263565b5050565b601f821115620002d4576200029e8162000148565b620002a9846200015d565b81016020851015620002b9578190505b620002d1620002c8856200015d565b83018262000262565b50505b505050565b600082821c905092915050565b6000620002f960001984600802620002d9565b1980831691505092915050565b6000620003148383620002e6565b9150826002028217905092915050565b6200032f82620000aa565b67ffffffffffffffff8111156200034b576200034a620000b5565b5b62000357825462000113565b6200036482828562000289565b600060209050601f8311600181146200039c576000841562000387578287015190505b62000393858262000306565b86555062000403565b601f198416620003ac8662000148565b60005b82811015620003d657848901518255600182019150602085019450602081019050620003af565b86831015620003f65784890151620003f2601f891682620002e6565b8355505b6001600288020188555050505b505050505050565b612c5a806200041b6000396000f3fe608060405234801561001057600080fd5b50600436106100ea5760003560e01c806370a082311161008c578063b88d4fde11610066578063b88d4fde1461025b578063c87b56dd14610277578063e985e9c5146102a7578063fb37e883146102d7576100ea565b806370a08231146101f157806395d89b4114610221578063a22cb4651461023f576100ea565b8063095ea7b3116100c8578063095ea7b31461016d57806323b872dd1461018957806342842e0e146101a55780636352211e146101c1576100ea565b806301ffc9a7146100ef57806306fdde031461011f578063081812fc1461013d575b600080fd5b61010960048036038101906101049190611ac0565b6102f3565b6040516101169190611b08565b60405180910390f35b610127610354565b6040516101349190611bb3565b60405180910390f35b61015760048036038101906101529190611c0b565b6103e6565b6040516101649190611c79565b60405180910390f35b61018760048036038101906101829190611cc0565b61042c565b005b6101a3600480360381019061019e9190611d00565b610543565b005b6101bf60048036038101906101ba9190611d00565b6105a3565b005b6101db60048036038101906101d69190611c0b565b6105c3565b6040516101e89190611c79565b60405180910390f35b61020b60048036038101906102069190611d53565b610649565b6040516102189190611d8f565b60405180910390f35b610229610700565b6040516102369190611bb3565b60405180910390f35b61025960048036038101906102549190611dd6565b610792565b005b61027560048036038101906102709190611f4b565b6107a8565b005b610291600480360381019061028c9190611c0b565b61080a565b60405161029e9190611bb3565b60405180910390f35b6102c160048036038101906102bc9190611fce565b61091c565b6040516102ce9190611b08565b60405180910390f35b6102f160048036038101906102ec91906120af565b6109b0565b005b6000634906490660e01b7bffffffffffffffffffffffffffffffffffffffffffffffffffffffff1916827bffffffffffffffffffffffffffffffffffffffffffffffffffffffff1916148061034d575061034c82610a74565b5b9050919050565b60606000805461036390612127565b80601f016020809104026020016040519081016040528092919081815260200182805461038f90612127565b80156103dc5780601f106103b1576101008083540402835291602001916103dc565b820191906000526020600020905b8154815290600101906020018083116103bf57829003601f168201915b5050505050905090565b60006103f182610b56565b6004600083815260200190815260200160002060009054906101000a900473ffffffffffffffffffffffffffffffffffffffff169050919050565b6000610437826105c3565b90508073ffffffffffffffffffffffffffffffffffffffff168373ffffffffffffffffffffffffffffffffffffffff16036104a7576040517f08c379a000000000000000000000000000000000000000000000000000000000815260040161049e906121ca565b60405180910390fd5b8073ffffffffffffffffffffffffffffffffffffffff166104c6610ba1565b73ffffffffffffffffffffffffffffffffffffffff1614806104f557506104f4816104ef610ba1565b61091c565b5b610534576040517f08c379a000000000000000000000000000000000000000000000000000000000815260040161052b9061225c565b60405180910390fd5b61053e8383610ba9565b505050565b61055461054e610ba1565b82610c62565b610593576040517f08c379a000000000000000000000000000000000000000000000000000000000815260040161058a906122ee565b60405180910390fd5b61059e838383610cf7565b505050565b6105be838383604051806020016040528060008152506107a8565b505050565b6000806105cf83610ff0565b9050600073ffffffffffffffffffffffffffffffffffffffff168173ffffffffffffffffffffffffffffffffffffffff1603610640576040517f08c379a00000000000000000000000000000000000000000000000000000000081526004016106379061235a565b60405180910390fd5b80915050919050565b60008073ffffffffffffffffffffffffffffffffffffffff168273ffffffffffffffffffffffffffffffffffffffff16036106b9576040517f08c379a00000000000000000000000000000000000000000000000000000000081526004016106b0906123ec565b60405180910390fd5b600360008373ffffffffffffffffffffffffffffffffffffffff1673ffffffffffffffffffffffffffffffffffffffff168152602001908152602001600020549050919050565b60606001805461070f90612127565b80601f016020809104026020016040519081016040528092919081815260200182805461073b90612127565b80156107885780601f1061075d57610100808354040283529160200191610788565b820191906000526020600020905b81548152906001019060200180831161076b57829003601f168201915b5050505050905090565b6107a461079d610ba1565b838361102d565b5050565b6107b96107b3610ba1565b83610c62565b6107f8576040517f08c379a00000000000000000000000000000000000000000000000000000000081526004016107ef906122ee565b60405180910390fd5b61080484848484611199565b50505050565b606061081582610b56565b600060066000848152602001908152602001600020805461083590612127565b80601f016020809104026020016040519081016040528092919081815260200182805461086190612127565b80156108ae5780601f10610883576101008083540402835291602001916108ae565b820191906000526020600020905b81548152906001019060200180831161089157829003601f168201915b5050505050905060006108bf6111f5565b905060008151036108d4578192505050610917565b6000825111156109095780826040516020016108f1929190612448565b60405160208183030381529060405292505050610917565b6109128461120c565b925050505b919050565b6000600560008473ffffffffffffffffffffffffffffffffffffffff1673ffffffffffffffffffffffffffffffffffffffff16815260200190815260200160002060008373ffffffffffffffffffffffffffffffffffffffff1673ffffffffffffffffffffffffffffffffffffffff16815260200190815260200160002060009054906101000a900460ff16905092915050565b60008151116109f4576040517f08c379a00000000000000000000000000000000000000000000000000000000081526004016109eb906124b8565b60405180910390fd5b6109fe6007611274565b6000610a0a600761128a565b9050610a163382611298565b610a2081836112b6565b3373ffffffffffffffffffffffffffffffffffffffff167f85a66b9141978db9980f7e0ce3b468cebf4f7999f32b23091c5c03e798b1ba7a8284604051610a689291906124d8565b60405180910390a25050565b60007f80ac58cd000000000000000000000000000000000000000000000000000000007bffffffffffffffffffffffffffffffffffffffffffffffffffffffff1916827bffffffffffffffffffffffffffffffffffffffffffffffffffffffff19161480610b3f57507f5b5e139f000000000000000000000000000000000000000000000000000000007bffffffffffffffffffffffffffffffffffffffffffffffffffffffff1916827bffffffffffffffffffffffffffffffffffffffffffffffffffffffff1916145b80610b4f5750610b4e8261135a565b5b9050919050565b610b5f816113c4565b610b9e576040517f08c379a0000000000000000000000000000000000000000000000000000000008152600401610b959061235a565b60405180910390fd5b50565b600033905090565b816004600083815260200190815260200160002060006101000a81548173ffffffffffffffffffffffffffffffffffffffff021916908373ffffffffffffffffffffffffffffffffffffffff160217905550808273ffffffffffffffffffffffffffffffffffffffff16610c1c836105c3565b73ffffffffffffffffffffffffffffffffffffffff167f8c5be1e5ebec7d5bd14f71427d1e84f3dd0314c0f7b2291e5b200ac8c7c3b92560405160405180910390a45050565b600080610c6e836105c3565b90508073ffffffffffffffffffffffffffffffffffffffff168473ffffffffffffffffffffffffffffffffffffffff161480610cb05750610caf818561091c565b5b80610cee57508373ffffffffffffffffffffffffffffffffffffffff16610cd6846103e6565b73ffffffffffffffffffffffffffffffffffffffff16145b91505092915050565b8273ffffffffffffffffffffffffffffffffffffffff16610d17826105c3565b73ffffffffffffffffffffffffffffffffffffffff1614610d6d576040517f08c379a0000000000000000000000000000000000000000000000000000000008152600401610d649061257a565b60405180910390fd5b600073ffffffffffffffffffffffffffffffffffffffff168273ffffffffffffffffffffffffffffffffffffffff1603610ddc576040517f08c379a0000000000000000000000000000000000000000000000000000000008152600401610dd39061260c565b60405180910390fd5b610de98383836001611405565b8273ffffffffffffffffffffffffffffffffffffffff16610e09826105c3565b73ffffffffffffffffffffffffffffffffffffffff1614610e5f576040517f08c379a0000000000000000000000000000000000000000000000000000000008152600401610e569061257a565b60405180910390fd5b6004600082815260200190815260200160002060006101000a81549073ffffffffffffffffffffffffffffffffffffffff02191690556001600360008573ffffffffffffffffffffffffffffffffffffffff1673ffffffffffffffffffffffffffffffffffffffff168152602001908152602001600020600082825403925050819055506001600360008473ffffffffffffffffffffffffffffffffffffffff1673ffffffffffffffffffffffffffffffffffffffff16815260200190815260200160002060008282540192505081905550816002600083815260200190815260200160002060006101000a81548173ffffffffffffffffffffffffffffffffffffffff021916908373ffffffffffffffffffffffffffffffffffffffff160217905550808273ffffffffffffffffffffffffffffffffffffffff168473ffffffffffffffffffffffffffffffffffffffff167fddf252ad1be2c89b69c2b068fc378daa952ba7f163c4a11628f55a4df523b3ef60405160405180910390a4610feb838383600161140b565b505050565b60006002600083815260200190815260200160002060009054906101000a900473ffffffffffffffffffffffffffffffffffffffff169050919050565b8173ffffffffffffffffffffffffffffffffffffffff168373ffffffffffffffffffffffffffffffffffffffff160361109b576040517f08c379a000000000000000000000000000000000000000000000000000000000815260040161109290612678565b60405180910390fd5b80600560008573ffffffffffffffffffffffffffffffffffffffff1673ffffffffffffffffffffffffffffffffffffffff16815260200190815260200160002060008473ffffffffffffffffffffffffffffffffffffffff1673ffffffffffffffffffffffffffffffffffffffff16815260200190815260200160002060006101000a81548160ff0219169083151502179055508173ffffffffffffffffffffffffffffffffffffffff168373ffffffffffffffffffffffffffffffffffffffff167f17307eab39ab6107e8899845ad3d59bd9653f200f220920489ca2b5937696c318360405161118c9190611b08565b60405180910390a3505050565b6111a4848484610cf7565b6111b084848484611411565b6111ef576040517f08c379a00000000000000000000000000000000000000000000000000000000081526004016111e69061270a565b60405180910390fd5b50505050565b606060405180602001604052806000815250905090565b606061121782610b56565b60006112216111f5565b90506000815111611241576040518060200160405280600081525061126c565b8061124b84611598565b60405160200161125c929190612448565b6040516020818303038152906040525b915050919050565b6001816000016000828254019250508190555050565b600081600001549050919050565b6112b2828260405180602001604052806000815250611666565b5050565b6112bf826113c4565b6112fe576040517f08c379a00000000000000000000000000000000000000000000000000000000081526004016112f59061279c565b60405180910390fd5b8060066000848152602001908152602001600020908161131e9190612968565b507ff8e1a15aba9398e019f0b49df1a4fde98ee17ae345cb5f6b5e2c27f5033e8ce78260405161134e9190611d8f565b60405180910390a15050565b60007f01ffc9a7000000000000000000000000000000000000000000000000000000007bffffffffffffffffffffffffffffffffffffffffffffffffffffffff1916827bffffffffffffffffffffffffffffffffffffffffffffffffffffffff1916149050919050565b60008073ffffffffffffffffffffffffffffffffffffffff166113e683610ff0565b73ffffffffffffffffffffffffffffffffffffffff1614159050919050565b50505050565b50505050565b60006114328473ffffffffffffffffffffffffffffffffffffffff166116c1565b1561158b578373ffffffffffffffffffffffffffffffffffffffff1663150b7a0261145b610ba1565b8786866040518563ffffffff1660e01b815260040161147d9493929190612a8f565b6020604051808303816000875af19250505080156114b957506040513d601f19601f820116820180604052508101906114b69190612af0565b60015b61153b573d80600081146114e9576040519150601f19603f3d011682016040523d82523d6000602084013e6114ee565b606091505b506000815103611533576040517f08c379a000000000000000000000000000000000000000000000000000000000815260040161152a9061270a565b60405180910390fd5b805181602001fd5b63150b7a0260e01b7bffffffffffffffffffffffffffffffffffffffffffffffffffffffff1916817bffffffffffffffffffffffffffffffffffffffffffffffffffffffff191614915050611590565b600190505b949350505050565b6060600060016115a7846116e4565b01905060008167ffffffffffffffff8111156115c6576115c5611e20565b5b6040519080825280601f01601f1916602001820160405280156115f85781602001600182028036833780820191505090505b509050600082602001820190505b60011561165b578080600190039150507f3031323334353637383961626364656600000000000000000000000000000000600a86061a8153600a858161164f5761164e612b1d565b5b04945060008503611606575b819350505050919050565b6116708383611837565b61167d6000848484611411565b6116bc576040517f08c379a00000000000000000000000000000000000000000000000000000000081526004016116b39061270a565b60405180910390fd5b505050565b6000808273ffffffffffffffffffffffffffffffffffffffff163b119050919050565b600080600090507a184f03e93ff9f4daa797ed6e38ed64bf6a1f0100000000000000008310611742577a184f03e93ff9f4daa797ed6e38ed64bf6a1f010000000000000000838161173857611737612b1d565b5b0492506040810190505b6d04ee2d6d415b85acef8100000000831061177f576d04ee2d6d415b85acef8100000000838161177557611774612b1d565b5b0492506020810190505b662386f26fc1000083106117ae57662386f26fc1000083816117a4576117a3612b1d565b5b0492506010810190505b6305f5e10083106117d7576305f5e10083816117cd576117cc612b1d565b5b0492506008810190505b61271083106117fc5761271083816117f2576117f1612b1d565b5b0492506004810190505b6064831061181f576064838161181557611814612b1d565b5b0492506002810190505b600a831061182e576001810190505b80915050919050565b600073ffffffffffffffffffffffffffffffffffffffff168273ffffffffffffffffffffffffffffffffffffffff16036118a6576040517f08c379a000000000000000000000000000000000000000000000000000000000815260040161189d90612b98565b60405180910390fd5b6118af816113c4565b156118ef576040517f08c379a00000000000000000000000000000000000000000000000000000000081526004016118e690612c04565b60405180910390fd5b6118fd600083836001611405565b611906816113c4565b15611946576040517f08c379a000000000000000000000000000000000000000000000000000000000815260040161193d90612c04565b60405180910390fd5b6001600360008473ffffffffffffffffffffffffffffffffffffffff1673ffffffffffffffffffffffffffffffffffffffff16815260200190815260200160002060008282540192505081905550816002600083815260200190815260200160002060006101000a81548173ffffffffffffffffffffffffffffffffffffffff021916908373ffffffffffffffffffffffffffffffffffffffff160217905550808273ffffffffffffffffffffffffffffffffffffffff16600073ffffffffffffffffffffffffffffffffffffffff167fddf252ad1be2c89b69c2b068fc378daa952ba7f163c4a11628f55a4df523b3ef60405160405180910390a4611a5060008383600161140b565b5050565b6000604051905090565b600080fd5b600080fd5b60007fffffffff0000000000000000000000000000000000000000000000000000000082169050919050565b611a9d81611a68565b8114611aa857600080fd5b50565b600081359050611aba81611a94565b92915050565b600060208284031215611ad657611ad5611a5e565b5b6000611ae484828501611aab565b91505092915050565b60008115159050919050565b611b0281611aed565b82525050565b6000602082019050611b1d6000830184611af9565b92915050565b600081519050919050565b600082825260208201905092915050565b60005b83811015611b5d578082015181840152602081019050611b42565b60008484015250505050565b6000601f19601f8301169050919050565b6000611b8582611b23565b611b8f8185611b2e565b9350611b9f818560208601611b3f565b611ba881611b69565b840191505092915050565b60006020820190508181036000830152611bcd8184611b7a565b905092915050565b6000819050919050565b611be881611bd5565b8114611bf357600080fd5b50565b600081359050611c0581611bdf565b92915050565b600060208284031215611c2157611c20611a5e565b5b6000611c2f84828501611bf6565b91505092915050565b600073ffffffffffffffffffffffffffffffffffffffff82169050919050565b6000611c6382611c38565b9050919050565b611c7381611c58565b82525050565b6000602082019050611c8e6000830184611c6a565b92915050565b611c9d81611c58565b8114611ca857600080fd5b50565b600081359050611cba81611c94565b92915050565b60008060408385031215611cd757611cd6611a5e565b5b6000611ce585828601611cab565b9250506020611cf685828601611bf6565b9150509250929050565b600080600060608486031215611d1957611d18611a5e565b5b6000611d2786828701611cab565b9350506020611d3886828701611cab565b9250506040611d4986828701611bf6565b9150509250925092565b600060208284031215611d6957611d68611a5e565b5b6000611d7784828501611cab565b91505092915050565b611d8981611bd5565b82525050565b6000602082019050611da46000830184611d80565b92915050565b611db381611aed565b8114611dbe57600080fd5b50565b600081359050611dd081611daa565b92915050565b60008060408385031215611ded57611dec611a5e565b5b6000611dfb85828601611cab565b9250506020611e0c85828601611dc1565b9150509250929050565b600080fd5b600080fd5b7f4e487b7100000000000000000000000000000000000000000000000000000000600052604160045260246000fd5b611e5882611b69565b810181811067ffffffffffffffff82111715611e7757611e76611e20565b5b80604052505050565b6000611e8a611a54565b9050611e968282611e4f565b919050565b600067ffffffffffffffff821115611eb657611eb5611e20565b5b611ebf82611b69565b9050602081019050919050565b82818337600083830152505050565b6000611eee611ee984611e9b565b611e80565b905082815260208101848484011115611f0a57611f09611e1b565b5b611f15848285611ecc565b509392505050565b600082601f830112611f3257611f31611e16565b5b8135611f42848260208601611edb565b91505092915050565b60008060008060808587031215611f6557611f64611a5e565b5b6000611f7387828801611cab565b9450506020611f8487828801611cab565b9350506040611f9587828801611bf6565b925050606085013567ffffffffffffffff811115611fb657611fb5611a63565b5b611fc287828801611f1d565b91505092959194509250565b60008060408385031215611fe557611fe4611a5e565b5b6000611ff385828601611cab565b925050602061200485828601611cab565b9150509250929050565b600067ffffffffffffffff82111561202957612028611e20565b5b61203282611b69565b9050602081019050919050565b600061205261204d8461200e565b611e80565b90508281526020810184848401111561206e5761206d611e1b565b5b612079848285611ecc565b509392505050565b600082601f83011261209657612095611e16565b5b81356120a684826020860161203f565b91505092915050565b6000602082840312156120c5576120c4611a5e565b5b600082013567ffffffffffffffff8111156120e3576120e2611a63565b5b6120ef84828501612081565b91505092915050565b7f4e487b7100000000000000000000000000000000000000000000000000000000600052602260045260246000fd5b6000600282049050600182168061213f57607f821691505b602082108103612152576121516120f8565b5b50919050565b7f4552433732313a20617070726f76616c20746f2063757272656e74206f776e6560008201527f7200000000000000000000000000000000000000000000000000000000000000602082015250565b60006121b4602183611b2e565b91506121bf82612158565b604082019050919050565b600060208201905081810360008301526121e3816121a7565b9050919050565b7f4552433732313a20617070726f76652063616c6c6572206973206e6f7420746f60008201527f6b656e206f776e6572206f7220617070726f76656420666f7220616c6c000000602082015250565b6000612246603d83611b2e565b9150612251826121ea565b604082019050919050565b6000602082019050818103600083015261227581612239565b9050919050565b7f4552433732313a2063616c6c6572206973206e6f7420746f6b656e206f776e6560008201527f72206f7220617070726f76656400000000000000000000000000000000000000602082015250565b60006122d8602d83611b2e565b91506122e38261227c565b604082019050919050565b60006020820190508181036000830152612307816122cb565b9050919050565b7f4552433732313a20696e76616c696420746f6b656e2049440000000000000000600082015250565b6000612344601883611b2e565b915061234f8261230e565b602082019050919050565b6000602082019050818103600083015261237381612337565b9050919050565b7f4552433732313a2061646472657373207a65726f206973206e6f74206120766160008201527f6c6964206f776e65720000000000000000000000000000000000000000000000602082015250565b60006123d6602983611b2e565b91506123e18261237a565b604082019050919050565b60006020820190508181036000830152612405816123c9565b9050919050565b600081905092915050565b600061242282611b23565b61242c818561240c565b935061243c818560208601611b3f565b80840191505092915050565b60006124548285612417565b91506124608284612417565b91508190509392505050565b7f546865205f746f6b656e555249206d7573742062652068617665000000000000600082015250565b60006124a2601a83611b2e565b91506124ad8261246c565b602082019050919050565b600060208201905081810360008301526124d181612495565b9050919050565b60006040820190506124ed6000830185611d80565b81810360208301526124ff8184611b7a565b90509392505050565b7f4552433732313a207472616e736665722066726f6d20696e636f72726563742060008201527f6f776e6572000000000000000000000000000000000000000000000000000000602082015250565b6000612564602583611b2e565b915061256f82612508565b604082019050919050565b6000602082019050818103600083015261259381612557565b9050919050565b7f4552433732313a207472616e7366657220746f20746865207a65726f2061646460008201527f7265737300000000000000000000000000000000000000000000000000000000602082015250565b60006125f6602483611b2e565b91506126018261259a565b604082019050919050565b60006020820190508181036000830152612625816125e9565b9050919050565b7f4552433732313a20617070726f766520746f2063616c6c657200000000000000600082015250565b6000612662601983611b2e565b915061266d8261262c565b602082019050919050565b6000602082019050818103600083015261269181612655565b9050919050565b7f4552433732313a207472616e7366657220746f206e6f6e20455243373231526560008201527f63656976657220696d706c656d656e7465720000000000000000000000000000602082015250565b60006126f4603283611b2e565b91506126ff82612698565b604082019050919050565b60006020820190508181036000830152612723816126e7565b9050919050565b7f45524337323155524953746f726167653a2055524920736574206f66206e6f6e60008201527f6578697374656e7420746f6b656e000000000000000000000000000000000000602082015250565b6000612786602e83611b2e565b91506127918261272a565b604082019050919050565b600060208201905081810360008301526127b581612779565b9050919050565b60008190508160005260206000209050919050565b60006020601f8301049050919050565b600082821b905092915050565b60006008830261281e7fffffffffffffffffffffffffffffffffffffffffffffffffffffffffffffffff826127e1565b61282886836127e1565b95508019841693508086168417925050509392505050565b6000819050919050565b600061286561286061285b84611bd5565b612840565b611bd5565b9050919050565b6000819050919050565b61287f8361284a565b61289361288b8261286c565b8484546127ee565b825550505050565b600090565b6128a861289b565b6128b3818484612876565b505050565b5b818110156128d7576128cc6000826128a0565b6001810190506128b9565b5050565b601f82111561291c576128ed816127bc565b6128f6846127d1565b81016020851015612905578190505b612919612911856127d1565b8301826128b8565b50505b505050565b600082821c905092915050565b600061293f60001984600802612921565b1980831691505092915050565b6000612958838361292e565b9150826002028217905092915050565b61297182611b23565b67ffffffffffffffff81111561298a57612989611e20565b5b6129948254612127565b61299f8282856128db565b600060209050601f8311600181146129d257600084156129c0578287015190505b6129ca858261294c565b865550612a32565b601f1984166129e0866127bc565b60005b82811015612a08578489015182556001820191506020850194506020810190506129e3565b86831015612a255784890151612a21601f89168261292e565b8355505b6001600288020188555050505b505050505050565b600081519050919050565b600082825260208201905092915050565b6000612a6182612a3a565b612a6b8185612a45565b9350612a7b818560208601611b3f565b612a8481611b69565b840191505092915050565b6000608082019050612aa46000830187611c6a565b612ab16020830186611c6a565b612abe6040830185611d80565b8181036060830152612ad08184612a56565b905095945050505050565b600081519050612aea81611a94565b92915050565b600060208284031215612b0657612b05611a5e565b5b6000612b1484828501612adb565b91505092915050565b7f4e487b7100000000000000000000000000000000000000000000000000000000600052601260045260246000fd5b7f4552433732313a206d696e7420746f20746865207a65726f2061646472657373600082015250565b6000612b82602083611b2e565b9150612b8d82612b4c565b602082019050919050565b60006020820190508181036000830152612bb181612b75565b9050919050565b7f4552433732313a20746f6b656e20616c7265616479206d696e74656400000000600082015250565b6000612bee601c83611b2e565b9150612bf982612bb8565b602082019050919050565b60006020820190508181036000830152612c1d81612be1565b905091905056fea2646970667358221220dc8332bdcc7dd520d101bb74312af642e402084658f7e74fa267642a33627f9f64736f6c63430008110033",
  "linkReferences": {},
  "deployedLinkReferences": {}
}