{
  "_format": "hh-sol-artifact-1",
  "contractName": "NFTMarketplace",
  "sourceName": "contracts/NFTMarketplace.sol",
  "abi": [
    {
      "inputs": [],
      "stateMutability": "nonpayable",
      "type": "constructor"
    },
    {
      "inputs": [
        {
          "internalType": "address",
          "name": "nftAddress",
          "type": "address"
        },
        {
          "internalType": "uint256",
          "name": "tokenId",
          "type": "uint256"
        }
      ],
      "name": "buyNFT",
      "outputs": [],
      "stateMutability": "payable",
      "type": "function"
    },
    {
      "inputs": [
        {
          "internalType": "address",
          "name": "nftAddress",
          "type": "address"
        },
        {
          "internalType": "uint256",
          "name": "tokenId",
          "type": "uint256"
        },
        {
          "internalType": "uint256",
          "name": "price",
          "type": "uint256"
        }
      ],
      "name": "listNFT",
      "outputs": [],
      "stateMutability": "nonpayable",
      "type": "function"
    },
    {
      "inputs": [
        {
          "internalType": "uint256",
          "name": "",
          "type": "uint256"
        }
      ],
      "name": "listings",
      "outputs": [
        {
          "internalType": "address",
          "name": "seller",
          "type": "address"
        },
        {
          "internalType": "uint256",
          "name": "price",
          "type": "uint256"
        }
      ],
      "stateMutability": "view",
      "type": "function"
    },
    {
      "inputs": [
        {
          "internalType": "address",
          "name": "operator",
          "type": "address"
        },
        {
          "internalType": "address",
          "name": "from",
          "type": "address"
        },
        {
          "internalType": "uint256",
          "name": "tokenId",
          "type": "uint256"
        },
        {
          "internalType": "bytes",
          "name": "data",
          "type": "bytes"
        }
      ],
      "name": "onERC721Received",
      "outputs": [
        {
          "internalType": "bytes4",
          "name": "",
          "type": "bytes4"
        }
      ],
      "stateMutability": "pure",
      "type": "function"
    },
    {
      "inputs": [
        {
          "internalType": "uint256",
          "name": "_ratio",
          "type": "uint256"
        }
      ],
      "name": "setMarketplaceRatio",
      "outputs": [],
      "stateMutability": "nonpayable",
      "type": "function"
    },
    {
      "inputs": [],
      "name": "withdrawMoney",
      "outputs": [],
      "stateMutability": "nonpayable",
      "type": "function"
    },
    {
      "inputs": [
        {
          "internalType": "address",
          "name": "nftAddress",
          "type": "address"
        },
        {
          "internalType": "uint256",
          "name": "tokenId",
          "type": "uint256"
        }
      ],
      "name": "withdrawNFT",
      "outputs": [],
      "stateMutability": "nonpayable",
      "type": "function"
    }
  ],
  "bytecode": "0x608060405234801561001057600080fd5b50600160008190555033600160006101000a81548173ffffffffffffffffffffffffffffffffffffffff021916908373ffffffffffffffffffffffffffffffffffffffff160217905550611195806100696000396000f3fe6080604052600436106100705760003560e01c8063a82ba76f1161004e578063a82ba76f14610104578063ac44600214610120578063ad05f1b414610137578063de74e57b1461016057610070565b8063150b7a02146100755780636088e93a146100b25780638101d333146100db575b600080fd5b34801561008157600080fd5b5061009c60048036038101906100979190610b22565b61019e565b6040516100a99190610be5565b60405180910390f35b3480156100be57600080fd5b506100d960048036038101906100d49190610c00565b6101b3565b005b3480156100e757600080fd5b5061010260048036038101906100fd9190610c40565b61030f565b005b61011e60048036038101906101199190610c00565b610373565b005b34801561012c57600080fd5b50610135610606565b005b34801561014357600080fd5b5061015e60048036038101906101599190610c6d565b610707565b005b34801561016c57600080fd5b5061018760048036038101906101829190610c40565b610999565b604051610195929190610cde565b60405180910390f35b600063150b7a0260e01b905095945050505050565b3373ffffffffffffffffffffffffffffffffffffffff166002600083815260200190815260200160002060000160009054906101000a900473ffffffffffffffffffffffffffffffffffffffff1673ffffffffffffffffffffffffffffffffffffffff1614610257576040517f08c379a000000000000000000000000000000000000000000000000000000000815260040161024e90610d8a565b60405180910390fd5b60026000828152602001908152602001600020600080820160006101000a81549073ffffffffffffffffffffffffffffffffffffffff0219169055600182016000905550508173ffffffffffffffffffffffffffffffffffffffff166342842e0e3033846040518463ffffffff1660e01b81526004016102d993929190610daa565b600060405180830381600087803b1580156102f357600080fd5b505af1158015610307573d6000803e3d6000fd5b505050505050565b600160009054906101000a900473ffffffffffffffffffffffffffffffffffffffff1673ffffffffffffffffffffffffffffffffffffffff163373ffffffffffffffffffffffffffffffffffffffff161461036957600080fd5b8060008190555050565b600073ffffffffffffffffffffffffffffffffffffffff166002600083815260200190815260200160002060000160009054906101000a900473ffffffffffffffffffffffffffffffffffffffff1673ffffffffffffffffffffffffffffffffffffffff1603610418576040517f08c379a000000000000000000000000000000000000000000000000000000000815260040161040f90610e2d565b60405180910390fd5b34600260008381526020019081526020016000206001015414610470576040517f08c379a000000000000000000000000000000000000000000000000000000000815260040161046790610e99565b60405180910390fd5b60006002600083815260200190815260200160002060000160009054906101000a900473ffffffffffffffffffffffffffffffffffffffff16905060006002600084815260200190815260200160002060010154905060006104f060646104e2600054856109dd90919063ffffffff16565b6109f390919063ffffffff16565b90508273ffffffffffffffffffffffffffffffffffffffff166108fc61051f8385610a0990919063ffffffff16565b9081150290604051600060405180830381858888f1935050505015801561054a573d6000803e3d6000fd5b508473ffffffffffffffffffffffffffffffffffffffff166342842e0e3033876040518463ffffffff1660e01b815260040161058893929190610daa565b600060405180830381600087803b1580156105a257600080fd5b505af11580156105b6573d6000803e3d6000fd5b5050505060026000858152602001908152602001600020600080820160006101000a81549073ffffffffffffffffffffffffffffffffffffffff0219169055600182016000905550505050505050565b600160009054906101000a900473ffffffffffffffffffffffffffffffffffffffff1673ffffffffffffffffffffffffffffffffffffffff163373ffffffffffffffffffffffffffffffffffffffff1614610696576040517f08c379a000000000000000000000000000000000000000000000000000000000815260040161068d90610f05565b60405180910390fd5b6000479050600160009054906101000a900473ffffffffffffffffffffffffffffffffffffffff1673ffffffffffffffffffffffffffffffffffffffff166108fc829081150290604051600060405180830381858888f19350505050158015610703573d6000803e3d6000fd5b5050565b3373ffffffffffffffffffffffffffffffffffffffff168373ffffffffffffffffffffffffffffffffffffffff16636352211e846040518263ffffffff1660e01b81526004016107579190610f25565b602060405180830381865afa158015610774573d6000803e3d6000fd5b505050506040513d601f19601f820116820180604052508101906107989190610f55565b73ffffffffffffffffffffffffffffffffffffffff16146107ee576040517f08c379a00000000000000000000000000000000000000000000000000000000081526004016107e590610fce565b60405180910390fd5b600073ffffffffffffffffffffffffffffffffffffffff166002600084815260200190815260200160002060000160009054906101000a900473ffffffffffffffffffffffffffffffffffffffff1673ffffffffffffffffffffffffffffffffffffffff1614610893576040517f08c379a000000000000000000000000000000000000000000000000000000000815260040161088a9061103a565b60405180910390fd5b8273ffffffffffffffffffffffffffffffffffffffff166342842e0e3330856040518463ffffffff1660e01b81526004016108d093929190610daa565b600060405180830381600087803b1580156108ea57600080fd5b505af11580156108fe573d6000803e3d6000fd5b5050505060405180604001604052803373ffffffffffffffffffffffffffffffffffffffff168152602001828152506002600084815260200190815260200160002060008201518160000160006101000a81548173ffffffffffffffffffffffffffffffffffffffff021916908373ffffffffffffffffffffffffffffffffffffffff16021790555060208201518160010155905050505050565b60026020528060005260406000206000915090508060000160009054906101000a900473ffffffffffffffffffffffffffffffffffffffff16908060010154905082565b600081836109eb9190611089565b905092915050565b60008183610a0191906110fa565b905092915050565b60008183610a17919061112b565b905092915050565b600080fd5b600080fd5b600073ffffffffffffffffffffffffffffffffffffffff82169050919050565b6000610a5482610a29565b9050919050565b610a6481610a49565b8114610a6f57600080fd5b50565b600081359050610a8181610a5b565b92915050565b6000819050919050565b610a9a81610a87565b8114610aa557600080fd5b50565b600081359050610ab781610a91565b92915050565b600080fd5b600080fd5b600080fd5b60008083601f840112610ae257610ae1610abd565b5b8235905067ffffffffffffffff811115610aff57610afe610ac2565b5b602083019150836001820283011115610b1b57610b1a610ac7565b5b9250929050565b600080600080600060808688031215610b3e57610b3d610a1f565b5b6000610b4c88828901610a72565b9550506020610b5d88828901610a72565b9450506040610b6e88828901610aa8565b935050606086013567ffffffffffffffff811115610b8f57610b8e610a24565b5b610b9b88828901610acc565b92509250509295509295909350565b60007fffffffff0000000000000000000000000000000000000000000000000000000082169050919050565b610bdf81610baa565b82525050565b6000602082019050610bfa6000830184610bd6565b92915050565b60008060408385031215610c1757610c16610a1f565b5b6000610c2585828601610a72565b9250506020610c3685828601610aa8565b9150509250929050565b600060208284031215610c5657610c55610a1f565b5b6000610c6484828501610aa8565b91505092915050565b600080600060608486031215610c8657610c85610a1f565b5b6000610c9486828701610a72565b9350506020610ca586828701610aa8565b9250506040610cb686828701610aa8565b9150509250925092565b610cc981610a49565b82525050565b610cd881610a87565b82525050565b6000604082019050610cf36000830185610cc0565b610d006020830184610ccf565b9392505050565b600082825260208201905092915050565b7f596f7520646f206e6f74206f776e2074686973204e4654206f7220697420697360008201527f206e6f74206c697374656420666f722073616c65000000000000000000000000602082015250565b6000610d74603483610d07565b9150610d7f82610d18565b604082019050919050565b60006020820190508181036000830152610da381610d67565b9050919050565b6000606082019050610dbf6000830186610cc0565b610dcc6020830185610cc0565b610dd96040830184610ccf565b949350505050565b7f4e4654206973206e6f74206c697374656420666f722073616c65000000000000600082015250565b6000610e17601a83610d07565b9150610e2282610de1565b602082019050919050565b60006020820190508181036000830152610e4681610e0a565b9050919050565b7f496e636f7272656374207061796d656e7420616d6f756e740000000000000000600082015250565b6000610e83601883610d07565b9150610e8e82610e4d565b602082019050919050565b60006020820190508181036000830152610eb281610e76565b9050919050565b7f796f7520617265206e6f74206f776e6572000000000000000000000000000000600082015250565b6000610eef601183610d07565b9150610efa82610eb9565b602082019050919050565b60006020820190508181036000830152610f1e81610ee2565b9050919050565b6000602082019050610f3a6000830184610ccf565b92915050565b600081519050610f4f81610a5b565b92915050565b600060208284031215610f6b57610f6a610a1f565b5b6000610f7984828501610f40565b91505092915050565b7f596f7520646f206e6f74206f776e2074686973204e4654000000000000000000600082015250565b6000610fb8601783610d07565b9150610fc382610f82565b602082019050919050565b60006020820190508181036000830152610fe781610fab565b9050919050565b7f74686973206974656d20686173206265656e206c697374656400000000000000600082015250565b6000611024601983610d07565b915061102f82610fee565b602082019050919050565b6000602082019050818103600083015261105381611017565b9050919050565b7f4e487b7100000000000000000000000000000000000000000000000000000000600052601160045260246000fd5b600061109482610a87565b915061109f83610a87565b92508282026110ad81610a87565b915082820484148315176110c4576110c361105a565b5b5092915050565b7f4e487b7100000000000000000000000000000000000000000000000000000000600052601260045260246000fd5b600061110582610a87565b915061111083610a87565b9250826111205761111f6110cb565b5b828204905092915050565b600061113682610a87565b915061114183610a87565b92508282039050818111156111595761115861105a565b5b9291505056fea26469706673582212208668bea6304e60b43ab8fd3fbf9fad490c828e5766da1dfdeef5fbb81b5fd0c864736f6c63430008110033",
  "linkReferences": {},
  "deployedLinkReferences": {}
}