{
  "_format": "hh-sol-artifact-1",
  "contractName": "NFTMarketplace",
  "sourceName": "contracts/NFTMarketplace.sol",
  "abi": [
    {
      "inputs": [],
      "stateMutability": "nonpayable",
      "type": "constructor"
    },
    {
      "anonymous": false,
      "inputs": [
        {
          "indexed": false,
          "internalType": "uint256",
          "name": "tokenId",
          "type": "uint256"
        },
        {
          "indexed": false,
          "internalType": "address",
          "name": "buyer",
          "type": "address"
        }
      ],
      "name": "BuyNFT",
      "type": "event"
    },
    {
      "anonymous": false,
      "inputs": [
        {
          "indexed": false,
          "internalType": "uint256",
          "name": "tokenId",
          "type": "uint256"
        },
        {
          "indexed": false,
          "internalType": "uint256",
          "name": "price",
          "type": "uint256"
        }
      ],
      "name": "ListNFT",
      "type": "event"
    },
    {
      "anonymous": false,
      "inputs": [
        {
          "indexed": false,
          "internalType": "uint256",
          "name": "tokenId",
          "type": "uint256"
        }
      ],
      "name": "WithdrawNFT",
      "type": "event"
    },
    {
      "inputs": [
        {
          "internalType": "address",
          "name": "nftAddress",
          "type": "address"
        },
        {
          "internalType": "uint256",
          "name": "tokenId",
          "type": "uint256"
        }
      ],
      "name": "buyNFT",
      "outputs": [],
      "stateMutability": "payable",
      "type": "function"
    },
    {
      "inputs": [
        {
          "internalType": "address",
          "name": "nftAddress",
          "type": "address"
        },
        {
          "internalType": "uint256",
          "name": "tokenId",
          "type": "uint256"
        },
        {
          "internalType": "uint256",
          "name": "price",
          "type": "uint256"
        }
      ],
      "name": "listNFT",
      "outputs": [],
      "stateMutability": "nonpayable",
      "type": "function"
    },
    {
      "inputs": [
        {
          "internalType": "uint256",
          "name": "",
          "type": "uint256"
        }
      ],
      "name": "listings",
      "outputs": [
        {
          "internalType": "address",
          "name": "seller",
          "type": "address"
        },
        {
          "internalType": "uint256",
          "name": "price",
          "type": "uint256"
        }
      ],
      "stateMutability": "view",
      "type": "function"
    },
    {
      "inputs": [
        {
          "internalType": "address",
          "name": "operator",
          "type": "address"
        },
        {
          "internalType": "address",
          "name": "from",
          "type": "address"
        },
        {
          "internalType": "uint256",
          "name": "tokenId",
          "type": "uint256"
        },
        {
          "internalType": "bytes",
          "name": "data",
          "type": "bytes"
        }
      ],
      "name": "onERC721Received",
      "outputs": [
        {
          "internalType": "bytes4",
          "name": "",
          "type": "bytes4"
        }
      ],
      "stateMutability": "pure",
      "type": "function"
    },
    {
      "inputs": [
        {
          "internalType": "uint256",
          "name": "_ratio",
          "type": "uint256"
        }
      ],
      "name": "setMarketplaceRatio",
      "outputs": [],
      "stateMutability": "nonpayable",
      "type": "function"
    },
    {
      "inputs": [],
      "name": "withdrawMoney",
      "outputs": [],
      "stateMutability": "nonpayable",
      "type": "function"
    },
    {
      "inputs": [
        {
          "internalType": "address",
          "name": "nftAddress",
          "type": "address"
        },
        {
          "internalType": "uint256",
          "name": "tokenId",
          "type": "uint256"
        }
      ],
      "name": "withdrawNFT",
      "outputs": [],
      "stateMutability": "nonpayable",
      "type": "function"
    }
  ],
  "bytecode": "0x608060405234801561001057600080fd5b50600160008190555033600160006101000a81548173ffffffffffffffffffffffffffffffffffffffff021916908373ffffffffffffffffffffffffffffffffffffffff160217905550611290806100696000396000f3fe6080604052600436106100705760003560e01c8063a82ba76f1161004e578063a82ba76f14610104578063ac44600214610120578063ad05f1b414610137578063de74e57b1461016057610070565b8063150b7a02146100755780636088e93a146100b25780638101d333146100db575b600080fd5b34801561008157600080fd5b5061009c60048036038101906100979190610bcb565b61019e565b6040516100a99190610c8e565b60405180910390f35b3480156100be57600080fd5b506100d960048036038101906100d49190610ca9565b6101b3565b005b3480156100e757600080fd5b5061010260048036038101906100fd9190610ce9565b610346565b005b61011e60048036038101906101199190610ca9565b6103aa565b005b34801561012c57600080fd5b50610135610676565b005b34801561014357600080fd5b5061015e60048036038101906101599190610d16565b610777565b005b34801561016c57600080fd5b5061018760048036038101906101829190610ce9565b610a42565b604051610195929190610d87565b60405180910390f35b600063150b7a0260e01b905095945050505050565b3373ffffffffffffffffffffffffffffffffffffffff166002600083815260200190815260200160002060000160009054906101000a900473ffffffffffffffffffffffffffffffffffffffff1673ffffffffffffffffffffffffffffffffffffffff1614610257576040517f08c379a000000000000000000000000000000000000000000000000000000000815260040161024e90610e33565b60405180910390fd5b60026000828152602001908152602001600020600080820160006101000a81549073ffffffffffffffffffffffffffffffffffffffff0219169055600182016000905550508173ffffffffffffffffffffffffffffffffffffffff166342842e0e3033846040518463ffffffff1660e01b81526004016102d993929190610e53565b600060405180830381600087803b1580156102f357600080fd5b505af1158015610307573d6000803e3d6000fd5b505050507fd18ab7eec3067b4a8e15f1c1f5299c77c05218c5718857eae55ac13c190f28758160405161033a9190610e8a565b60405180910390a15050565b600160009054906101000a900473ffffffffffffffffffffffffffffffffffffffff1673ffffffffffffffffffffffffffffffffffffffff163373ffffffffffffffffffffffffffffffffffffffff16146103a057600080fd5b8060008190555050565b600073ffffffffffffffffffffffffffffffffffffffff166002600083815260200190815260200160002060000160009054906101000a900473ffffffffffffffffffffffffffffffffffffffff1673ffffffffffffffffffffffffffffffffffffffff160361044f576040517f08c379a000000000000000000000000000000000000000000000000000000000815260040161044690610ef1565b60405180910390fd5b346002600083815260200190815260200160002060010154146104a7576040517f08c379a000000000000000000000000000000000000000000000000000000000815260040161049e90610f5d565b60405180910390fd5b60006002600083815260200190815260200160002060000160009054906101000a900473ffffffffffffffffffffffffffffffffffffffff1690506000600260008481526020019081526020016000206001015490506000610527606461051960005485610a8690919063ffffffff16565b610a9c90919063ffffffff16565b90508273ffffffffffffffffffffffffffffffffffffffff166108fc6105568385610ab290919063ffffffff16565b9081150290604051600060405180830381858888f19350505050158015610581573d6000803e3d6000fd5b508473ffffffffffffffffffffffffffffffffffffffff166342842e0e3033876040518463ffffffff1660e01b81526004016105bf93929190610e53565b600060405180830381600087803b1580156105d957600080fd5b505af11580156105ed573d6000803e3d6000fd5b5050505060026000858152602001908152602001600020600080820160006101000a81549073ffffffffffffffffffffffffffffffffffffffff0219169055600182016000905550507f079fc0f01dc38ba287c48d683564d13539db09719cb3532fee3c1b1b61bbcf958433604051610667929190610f7d565b60405180910390a15050505050565b600160009054906101000a900473ffffffffffffffffffffffffffffffffffffffff1673ffffffffffffffffffffffffffffffffffffffff163373ffffffffffffffffffffffffffffffffffffffff1614610706576040517f08c379a00000000000000000000000000000000000000000000000000000000081526004016106fd90610ff2565b60405180910390fd5b6000479050600160009054906101000a900473ffffffffffffffffffffffffffffffffffffffff1673ffffffffffffffffffffffffffffffffffffffff166108fc829081150290604051600060405180830381858888f19350505050158015610773573d6000803e3d6000fd5b5050565b3373ffffffffffffffffffffffffffffffffffffffff168373ffffffffffffffffffffffffffffffffffffffff16636352211e846040518263ffffffff1660e01b81526004016107c79190610e8a565b602060405180830381865afa1580156107e4573d6000803e3d6000fd5b505050506040513d601f19601f820116820180604052508101906108089190611027565b73ffffffffffffffffffffffffffffffffffffffff161461085e576040517f08c379a0000000000000000000000000000000000000000000000000000000008152600401610855906110a0565b60405180910390fd5b600073ffffffffffffffffffffffffffffffffffffffff166002600084815260200190815260200160002060000160009054906101000a900473ffffffffffffffffffffffffffffffffffffffff1673ffffffffffffffffffffffffffffffffffffffff1614610903576040517f08c379a00000000000000000000000000000000000000000000000000000000081526004016108fa9061110c565b60405180910390fd5b8273ffffffffffffffffffffffffffffffffffffffff166342842e0e3330856040518463ffffffff1660e01b815260040161094093929190610e53565b600060405180830381600087803b15801561095a57600080fd5b505af115801561096e573d6000803e3d6000fd5b5050505060405180604001604052803373ffffffffffffffffffffffffffffffffffffffff168152602001828152506002600084815260200190815260200160002060008201518160000160006101000a81548173ffffffffffffffffffffffffffffffffffffffff021916908373ffffffffffffffffffffffffffffffffffffffff160217905550602082015181600101559050507fadc2524c8f93616be9bad3bcab121a8de2a297699e78d4762481efcd6d26a9268282604051610a3592919061112c565b60405180910390a1505050565b60026020528060005260406000206000915090508060000160009054906101000a900473ffffffffffffffffffffffffffffffffffffffff16908060010154905082565b60008183610a949190611184565b905092915050565b60008183610aaa91906111f5565b905092915050565b60008183610ac09190611226565b905092915050565b600080fd5b600080fd5b600073ffffffffffffffffffffffffffffffffffffffff82169050919050565b6000610afd82610ad2565b9050919050565b610b0d81610af2565b8114610b1857600080fd5b50565b600081359050610b2a81610b04565b92915050565b6000819050919050565b610b4381610b30565b8114610b4e57600080fd5b50565b600081359050610b6081610b3a565b92915050565b600080fd5b600080fd5b600080fd5b60008083601f840112610b8b57610b8a610b66565b5b8235905067ffffffffffffffff811115610ba857610ba7610b6b565b5b602083019150836001820283011115610bc457610bc3610b70565b5b9250929050565b600080600080600060808688031215610be757610be6610ac8565b5b6000610bf588828901610b1b565b9550506020610c0688828901610b1b565b9450506040610c1788828901610b51565b935050606086013567ffffffffffffffff811115610c3857610c37610acd565b5b610c4488828901610b75565b92509250509295509295909350565b60007fffffffff0000000000000000000000000000000000000000000000000000000082169050919050565b610c8881610c53565b82525050565b6000602082019050610ca36000830184610c7f565b92915050565b60008060408385031215610cc057610cbf610ac8565b5b6000610cce85828601610b1b565b9250506020610cdf85828601610b51565b9150509250929050565b600060208284031215610cff57610cfe610ac8565b5b6000610d0d84828501610b51565b91505092915050565b600080600060608486031215610d2f57610d2e610ac8565b5b6000610d3d86828701610b1b565b9350506020610d4e86828701610b51565b9250506040610d5f86828701610b51565b9150509250925092565b610d7281610af2565b82525050565b610d8181610b30565b82525050565b6000604082019050610d9c6000830185610d69565b610da96020830184610d78565b9392505050565b600082825260208201905092915050565b7f596f7520646f206e6f74206f776e2074686973204e4654206f7220697420697360008201527f206e6f74206c697374656420666f722073616c65000000000000000000000000602082015250565b6000610e1d603483610db0565b9150610e2882610dc1565b604082019050919050565b60006020820190508181036000830152610e4c81610e10565b9050919050565b6000606082019050610e686000830186610d69565b610e756020830185610d69565b610e826040830184610d78565b949350505050565b6000602082019050610e9f6000830184610d78565b92915050565b7f4e4654206973206e6f74206c697374656420666f722073616c65000000000000600082015250565b6000610edb601a83610db0565b9150610ee682610ea5565b602082019050919050565b60006020820190508181036000830152610f0a81610ece565b9050919050565b7f496e636f7272656374207061796d656e7420616d6f756e740000000000000000600082015250565b6000610f47601883610db0565b9150610f5282610f11565b602082019050919050565b60006020820190508181036000830152610f7681610f3a565b9050919050565b6000604082019050610f926000830185610d78565b610f9f6020830184610d69565b9392505050565b7f796f7520617265206e6f74206f776e6572000000000000000000000000000000600082015250565b6000610fdc601183610db0565b9150610fe782610fa6565b602082019050919050565b6000602082019050818103600083015261100b81610fcf565b9050919050565b60008151905061102181610b04565b92915050565b60006020828403121561103d5761103c610ac8565b5b600061104b84828501611012565b91505092915050565b7f596f7520646f206e6f74206f776e2074686973204e4654000000000000000000600082015250565b600061108a601783610db0565b915061109582611054565b602082019050919050565b600060208201905081810360008301526110b98161107d565b9050919050565b7f74686973206974656d20686173206265656e206c697374656400000000000000600082015250565b60006110f6601983610db0565b9150611101826110c0565b602082019050919050565b60006020820190508181036000830152611125816110e9565b9050919050565b60006040820190506111416000830185610d78565b61114e6020830184610d78565b9392505050565b7f4e487b7100000000000000000000000000000000000000000000000000000000600052601160045260246000fd5b600061118f82610b30565b915061119a83610b30565b92508282026111a881610b30565b915082820484148315176111bf576111be611155565b5b5092915050565b7f4e487b7100000000000000000000000000000000000000000000000000000000600052601260045260246000fd5b600061120082610b30565b915061120b83610b30565b92508261121b5761121a6111c6565b5b828204905092915050565b600061123182610b30565b915061123c83610b30565b925082820390508181111561125457611253611155565b5b9291505056fea2646970667358221220754329394fbb1b452374de3221acb4d06f964793bb40c61933d0583848c1937d64736f6c63430008110033",
  "linkReferences": {},
  "deployedLinkReferences": {}
}